{
  "_format": "hh-sol-artifact-1",
  "contractName": "ProposalPactUpgradeable",
  "sourceName": "contracts/ProposalPactUpgradeable.sol",
  "abi": [
    {
      "anonymous": false,
      "inputs": [
        {
          "indexed": false,
          "internalType": "address",
          "name": "previousAdmin",
          "type": "address"
        },
        {
          "indexed": false,
          "internalType": "address",
          "name": "newAdmin",
          "type": "address"
        }
      ],
      "name": "AdminChanged",
      "type": "event"
    },
    {
      "anonymous": false,
      "inputs": [
        {
          "indexed": true,
          "internalType": "address",
          "name": "beacon",
          "type": "address"
        }
      ],
      "name": "BeaconUpgraded",
      "type": "event"
    },
    {
      "anonymous": false,
      "inputs": [
        {
          "indexed": false,
          "internalType": "uint8",
          "name": "version",
          "type": "uint8"
        }
      ],
      "name": "Initialized",
      "type": "event"
    },
    {
      "anonymous": false,
      "inputs": [
        {
          "indexed": true,
          "internalType": "address",
          "name": "previousOwner",
          "type": "address"
        },
        {
          "indexed": true,
          "internalType": "address",
          "name": "newOwner",
          "type": "address"
        }
      ],
      "name": "OwnershipTransferred",
      "type": "event"
    },
    {
      "anonymous": false,
      "inputs": [
        {
          "indexed": true,
          "internalType": "address",
          "name": "implementation",
          "type": "address"
        }
      ],
      "name": "Upgraded",
      "type": "event"
    },
    {
      "anonymous": false,
      "inputs": [
        {
          "indexed": true,
          "internalType": "bytes32",
          "name": "uid",
          "type": "bytes32"
        },
        {
          "indexed": true,
          "internalType": "address",
          "name": "payee",
          "type": "address"
        },
        {
          "indexed": false,
          "internalType": "uint256",
          "name": "amount",
          "type": "uint256"
        }
      ],
      "name": "logAmountOut",
      "type": "event"
    },
    {
      "anonymous": false,
      "inputs": [
        {
          "indexed": true,
          "internalType": "bytes32",
          "name": "uid",
          "type": "bytes32"
        },
        {
          "indexed": false,
          "internalType": "address",
          "name": "payer",
          "type": "address"
        },
        {
          "indexed": false,
          "internalType": "uint256",
          "name": "amount",
          "type": "uint256"
        }
      ],
      "name": "logContribution",
      "type": "event"
    },
    {
      "anonymous": false,
      "inputs": [
        {
          "indexed": true,
          "internalType": "address",
          "name": "creator",
          "type": "address"
        },
        {
          "indexed": false,
          "internalType": "bytes32",
          "name": "uid",
          "type": "bytes32"
        }
      ],
      "name": "logPactCreated",
      "type": "event"
    },
    {
      "anonymous": false,
      "inputs": [
        {
          "indexed": false,
          "internalType": "bytes32",
          "name": "uid",
          "type": "bytes32"
        }
      ],
      "name": "logvotingConcluded",
      "type": "event"
    },
    {
      "inputs": [
        {
          "internalType": "bytes32",
          "name": "pactid",
          "type": "bytes32"
        },
        {
          "internalType": "address[]",
          "name": "_voters",
          "type": "address[]"
        }
      ],
      "name": "addVoters",
      "outputs": [],
      "stateMutability": "nonpayable",
      "type": "function"
    },
    {
      "inputs": [
        {
          "internalType": "bytes32",
          "name": "pactid",
          "type": "bytes32"
        }
      ],
      "name": "concludeVoting",
      "outputs": [],
      "stateMutability": "nonpayable",
      "type": "function"
    },
    {
      "inputs": [
        {
          "components": [
            {
              "internalType": "bool",
              "name": "votingEnabled",
              "type": "bool"
            },
            {
              "internalType": "bool",
              "name": "openParticipation",
              "type": "bool"
            },
            {
              "internalType": "bool",
              "name": "refundOnVotedYes",
              "type": "bool"
            },
            {
              "internalType": "bool",
              "name": "refundOnVotedNo",
              "type": "bool"
            },
            {
              "internalType": "bool",
              "name": "votingConcluded",
              "type": "bool"
            },
            {
              "internalType": "uint40",
              "name": "duration",
              "type": "uint40"
            },
            {
              "internalType": "uint40",
              "name": "votingStartTimestamp",
              "type": "uint40"
            },
            {
              "internalType": "uint128",
              "name": "minContribution",
              "type": "uint128"
            }
          ],
          "internalType": "struct VotingInfo",
          "name": "votingInfo_",
          "type": "tuple"
        },
        {
          "internalType": "bool",
          "name": "_isEditable",
          "type": "bool"
        },
        {
          "internalType": "bytes32",
          "name": "groupName",
          "type": "bytes32"
        },
        {
          "internalType": "string",
          "name": "_pactText",
          "type": "string"
        },
        {
          "internalType": "address[]",
          "name": "_voters",
          "type": "address[]"
        },
        {
          "internalType": "address[]",
          "name": "_yesBeneficiaries",
          "type": "address[]"
        },
        {
          "internalType": "address[]",
          "name": "_noBeneficiaries",
          "type": "address[]"
        }
      ],
      "name": "createPact",
      "outputs": [],
      "stateMutability": "payable",
      "type": "function"
    },
    {
      "inputs": [
        {
          "internalType": "bytes32",
          "name": "pactid",
          "type": "bytes32"
        }
      ],
      "name": "getParticipants",
      "outputs": [
        {
          "internalType": "address[]",
          "name": "",
          "type": "address[]"
        },
        {
          "internalType": "address[]",
          "name": "",
          "type": "address[]"
        },
        {
          "internalType": "address[]",
          "name": "",
          "type": "address[]"
        }
      ],
      "stateMutability": "view",
      "type": "function"
    },
    {
      "inputs": [
        {
          "internalType": "address",
          "name": "",
          "type": "address"
        }
      ],
      "name": "grants",
      "outputs": [
        {
          "internalType": "uint256",
          "name": "",
          "type": "uint256"
        }
      ],
      "stateMutability": "view",
      "type": "function"
    },
    {
      "inputs": [
        {
          "components": [
            {
              "internalType": "uint32",
              "name": "maxVotingPeriod",
              "type": "uint32"
            },
            {
              "internalType": "uint32",
              "name": "minOpenParticipationVotingPeriod",
              "type": "uint32"
            },
            {
              "internalType": "address",
              "name": "groupsContract",
              "type": "address"
            },
            {
              "internalType": "uint128",
              "name": "minOpenParticipationAmount",
              "type": "uint128"
            }
          ],
          "internalType": "struct Config",
          "name": "_config",
          "type": "tuple"
        }
      ],
      "name": "initialize",
      "outputs": [],
      "stateMutability": "nonpayable",
      "type": "function"
    },
    {
      "inputs": [],
      "name": "owner",
      "outputs": [
        {
          "internalType": "address",
          "name": "",
          "type": "address"
        }
      ],
      "stateMutability": "view",
      "type": "function"
    },
    {
      "inputs": [
        {
          "internalType": "bytes32",
          "name": "",
          "type": "bytes32"
        }
      ],
      "name": "pacts",
      "outputs": [
        {
          "internalType": "uint32",
          "name": "yesVotes",
          "type": "uint32"
        },
        {
          "internalType": "uint32",
          "name": "noVotes",
          "type": "uint32"
        },
        {
          "internalType": "uint128",
          "name": "totalValue",
          "type": "uint128"
        },
        {
          "internalType": "bool",
          "name": "refundAvailable",
          "type": "bool"
        },
        {
          "internalType": "bool",
          "name": "isEditable",
          "type": "bool"
        },
        {
          "internalType": "address",
          "name": "creator",
          "type": "address"
        },
        {
          "internalType": "bytes32",
          "name": "groupName",
          "type": "bytes32"
        },
        {
          "internalType": "string",
          "name": "pactText",
          "type": "string"
        }
      ],
      "stateMutability": "view",
      "type": "function"
    },
    {
      "inputs": [
        {
          "internalType": "bytes32",
          "name": "pactid",
          "type": "bytes32"
        }
      ],
      "name": "pitchIn",
      "outputs": [],
      "stateMutability": "payable",
      "type": "function"
    },
    {
      "inputs": [
        {
          "internalType": "bytes32",
          "name": "pactid",
          "type": "bytes32"
        }
      ],
      "name": "postponeVotingWindow",
      "outputs": [],
      "stateMutability": "nonpayable",
      "type": "function"
    },
    {
      "inputs": [],
      "name": "proxiableUUID",
      "outputs": [
        {
          "internalType": "bytes32",
          "name": "",
          "type": "bytes32"
        }
      ],
      "stateMutability": "view",
      "type": "function"
    },
    {
      "inputs": [],
      "name": "renounceOwnership",
      "outputs": [],
      "stateMutability": "nonpayable",
      "type": "function"
    },
    {
      "inputs": [
        {
          "internalType": "bytes32",
          "name": "pactid",
          "type": "bytes32"
        },
        {
          "internalType": "string",
          "name": "pactText_",
          "type": "string"
        }
      ],
      "name": "setText",
      "outputs": [],
      "stateMutability": "nonpayable",
      "type": "function"
    },
    {
      "inputs": [
        {
          "internalType": "address",
          "name": "newOwner",
          "type": "address"
        }
      ],
      "name": "transferOwnership",
      "outputs": [],
      "stateMutability": "nonpayable",
      "type": "function"
    },
    {
      "inputs": [
        {
          "internalType": "address",
          "name": "newImplementation",
          "type": "address"
        }
      ],
      "name": "upgradeTo",
      "outputs": [],
      "stateMutability": "nonpayable",
      "type": "function"
    },
    {
      "inputs": [
        {
          "internalType": "address",
          "name": "newImplementation",
          "type": "address"
        },
        {
          "internalType": "bytes",
          "name": "data",
          "type": "bytes"
        }
      ],
      "name": "upgradeToAndCall",
      "outputs": [],
      "stateMutability": "payable",
      "type": "function"
    },
    {
      "inputs": [
        {
          "internalType": "bytes32",
          "name": "",
          "type": "bytes32"
        },
        {
          "internalType": "address",
          "name": "",
          "type": "address"
        }
      ],
      "name": "userInteractionData",
      "outputs": [
        {
          "internalType": "bool",
          "name": "canVote",
          "type": "bool"
        },
        {
          "internalType": "bool",
          "name": "hasVoted",
          "type": "bool"
        },
        {
          "internalType": "bool",
          "name": "castedVote",
          "type": "bool"
        },
        {
          "internalType": "uint128",
          "name": "contribution",
          "type": "uint128"
        }
      ],
      "stateMutability": "view",
      "type": "function"
    },
    {
      "inputs": [
        {
          "internalType": "bytes32",
          "name": "_pactid",
          "type": "bytes32"
        },
        {
          "internalType": "bool",
          "name": "_vote",
          "type": "bool"
        }
      ],
      "name": "voteOnPact",
      "outputs": [],
      "stateMutability": "nonpayable",
      "type": "function"
    },
    {
      "inputs": [
        {
          "internalType": "bytes32",
          "name": "",
          "type": "bytes32"
        }
      ],
      "name": "votingInfo",
      "outputs": [
        {
          "internalType": "bool",
          "name": "votingEnabled",
          "type": "bool"
        },
        {
          "internalType": "bool",
          "name": "openParticipation",
          "type": "bool"
        },
        {
          "internalType": "bool",
          "name": "refundOnVotedYes",
          "type": "bool"
        },
        {
          "internalType": "bool",
          "name": "refundOnVotedNo",
          "type": "bool"
        },
        {
          "internalType": "bool",
          "name": "votingConcluded",
          "type": "bool"
        },
        {
          "internalType": "uint40",
          "name": "duration",
          "type": "uint40"
        },
        {
          "internalType": "uint40",
          "name": "votingStartTimestamp",
          "type": "uint40"
        },
        {
          "internalType": "uint128",
          "name": "minContribution",
          "type": "uint128"
        }
      ],
      "stateMutability": "view",
      "type": "function"
    },
    {
      "inputs": [
        {
          "internalType": "bytes32",
          "name": "pactid",
          "type": "bytes32"
        },
        {
          "internalType": "uint256",
          "name": "amount",
          "type": "uint256"
        }
      ],
      "name": "withDrawContribution",
      "outputs": [],
      "stateMutability": "nonpayable",
      "type": "function"
    },
    {
      "inputs": [
        {
          "internalType": "uint256",
          "name": "amount",
          "type": "uint256"
        }
      ],
      "name": "withdrawGrant",
      "outputs": [],
      "stateMutability": "nonpayable",
      "type": "function"
    }
  ],
  "bytecode": "0x60a06040523073ffffffffffffffffffffffffffffffffffffffff1660809073ffffffffffffffffffffffffffffffffffffffff1681525034801561004357600080fd5b5060805161598f6200007c60003960008181611e0f01528181611e9d01528181611f970152818161202501526120d5015261598f6000f3fe60806040526004361061012a5760003560e01c80637479f92c116100ab578063cd4cd8131161006f578063cd4cd813146103af578063d8bcd2f4146103f3578063eaf72c591461041c578063f2fde38b14610438578063f8bfca8b14610461578063ff8594fc146104a55761012a565b80637479f92c146102b55780638da5cb5b146102de578063b764c81014610309578063b869cea314610349578063b9e20cd4146103865761012a565b80633295b495116100f25780633295b495146102055780633659cfe61461022e5780634f1ef2861461025757806352d1902d14610273578063715018a61461029e5761012a565b8063027b71d51461012f578063028669f91461014b5780630b0235be146101745780630fee5347146101b35780631774931e146101dc575b600080fd5b61014960048036038101906101449190613c22565b6104ce565b005b34801561015757600080fd5b50610172600480360381019061016d9190613d4d565b610a19565b005b34801561018057600080fd5b5061019b60048036038101906101969190613d4d565b611379565b6040516101aa93929190613e6a565b60405180910390f35b3480156101bf57600080fd5b506101da60048036038101906101d59190613eb6565b611565565b005b3480156101e857600080fd5b5061020360048036038101906101fe9190613d4d565b611aec565b005b34801561021157600080fd5b5061022c60048036038101906102279190613f2c565b611d21565b005b34801561023a57600080fd5b5061025560048036038101906102509190613f85565b611e0d565b005b610271600480360381019061026c9190614067565b611f95565b005b34801561027f57600080fd5b506102886120d1565b60405161029591906140d2565b60405180910390f35b3480156102aa57600080fd5b506102b361218a565b005b3480156102c157600080fd5b506102dc60048036038101906102d791906140ed565b61219e565b005b3480156102ea57600080fd5b506102f36125b4565b604051610300919061413c565b60405180910390f35b34801561031557600080fd5b50610330600480360381019061032b9190614157565b6125de565b60405161034094939291906141b5565b60405180910390f35b34801561035557600080fd5b50610370600480360381019061036b9190613f85565b61265e565b60405161037d9190614209565b60405180910390f35b34801561039257600080fd5b506103ad60048036038101906103a89190614224565b612676565b005b3480156103bb57600080fd5b506103d660048036038101906103d19190613d4d565b6128ea565b6040516103ea989796959493929190614293565b60405180910390f35b3480156103ff57600080fd5b5061041a60048036038101906104159190614335565b6129b1565b005b61043660048036038101906104319190613d4d565b612b02565b005b34801561044457600080fd5b5061045f600480360381019061045a9190613f85565b612ca5565b005b34801561046d57600080fd5b5061048860048036038101906104839190613d4d565b612d28565b60405161049c989796959493929190614400565b60405180910390f35b3480156104b157600080fd5b506104cc60048036038101906104c79190614485565b612e6e565b005b600060ca6040518060800160405290816000820160009054906101000a900463ffffffff1663ffffffff1663ffffffff1681526020016000820160049054906101000a900463ffffffff1663ffffffff1663ffffffff1681526020016000820160089054906101000a900473ffffffffffffffffffffffffffffffffffffffff1673ffffffffffffffffffffffffffffffffffffffff1673ffffffffffffffffffffffffffffffffffffffff1681526020016001820160009054906101000a90046fffffffffffffffffffffffffffffffff166fffffffffffffffffffffffffffffffff166fffffffffffffffffffffffffffffffff168152505090506000303360c9546040516020016105e4939291906145a5565b604051602081830303815290604052805190602001209050600060cc600083815260200190815260200160002090508c8160000160196101000a81548160ff0219169083151502179055508a8a826003019182610642929190614804565b50338160010160006101000a81548173ffffffffffffffffffffffffffffffffffffffff021916908373ffffffffffffffffffffffffffffffffffffffff1602179055508b81600201819055508d600001511561096057428e60c0015164ffffffffff1610156106d457610708426106ba9190614903565b8e60c0019064ffffffffff16908164ffffffffff16815250505b8d602001511561073e5782606001516fffffffffffffffffffffffffffffffff168e60e001516fffffffffffffffffffffffffffffffff16101561071757600080fd5b826020015163ffffffff168e60a0015164ffffffffff16101561073957600080fd5b610784565b6002836020015161074f9190614966565b63ffffffff168e60a0015164ffffffffff16101561076c57600080fd5b6000898990501461078357610782828a8a612f34565b5b5b826000015163ffffffff168e60a0015164ffffffffff1611156107a657600080fd5b60008e60800190151590811515815250508d604001516107e557600087879050116107d057600080fd5b86868260050191906107e3929190613848565b505b8d6060015161081357600085859050116107fe57600080fd5b8484826006019190610811929190613848565b505b8d60cd600084815260200190815260200160002060008201518160000160006101000a81548160ff02191690831515021790555060208201518160000160016101000a81548160ff02191690831515021790555060408201518160000160026101000a81548160ff02191690831515021790555060608201518160000160036101000a81548160ff02191690831515021790555060808201518160000160046101000a81548160ff02191690831515021790555060a08201518160000160056101000a81548164ffffffffff021916908364ffffffffff16021790555060c082015181600001600a6101000a81548164ffffffffff021916908364ffffffffff16021790555060e082015181600001600f6101000a8154816fffffffffffffffffffffffffffffffff02191690836fffffffffffffffffffffffffffffffff160217905550905050610990565b600160cd600084815260200190815260200160002060000160046101000a81548160ff0219169083151502179055505b60c960008154809291906109a390614997565b91905055503373ffffffffffffffffffffffffffffffffffffffff167feaf851adf4eecf65aa6267d90d2c5b242161845539447cad4485b71701e6a041836040516109ee91906140d2565b60405180910390a26000341115610a0957610a0882612b02565b5b5050505050505050505050505050565b600060cd6000838152602001908152602001600020604051806101000160405290816000820160009054906101000a900460ff161515151581526020016000820160019054906101000a900460ff161515151581526020016000820160029054906101000a900460ff161515151581526020016000820160039054906101000a900460ff161515151581526020016000820160049054906101000a900460ff161515151581526020016000820160059054906101000a900464ffffffffff1664ffffffffff1664ffffffffff16815260200160008201600a9054906101000a900464ffffffffff1664ffffffffff1664ffffffffff16815260200160008201600f9054906101000a90046fffffffffffffffffffffffffffffffff166fffffffffffffffffffffffffffffffff166fffffffffffffffffffffffffffffffff168152505090506001610b6a82613119565b14610baa576040517f08c379a0000000000000000000000000000000000000000000000000000000008152600401610ba190614a2b565b60405180910390fd5b806080015115610bb957600080fd5b8060200151610c2d5760ce600083815260200190815260200160002060003373ffffffffffffffffffffffffffffffffffffffff1673ffffffffffffffffffffffffffffffffffffffff16815260200190815260200160002060000160009054906101000a900460ff16610c2c57600080fd5b5b8060e001516fffffffffffffffffffffffffffffffff1660ce600084815260200190815260200160002060003373ffffffffffffffffffffffffffffffffffffffff1673ffffffffffffffffffffffffffffffffffffffff16815260200190815260200160002060000160039054906101000a90046fffffffffffffffffffffffffffffffff166fffffffffffffffffffffffffffffffff161015610cd157600080fd5b600060cc6000848152602001908152602001600020604051806101600160405290816000820160009054906101000a900463ffffffff1663ffffffff1663ffffffff1681526020016000820160049054906101000a900463ffffffff1663ffffffff1663ffffffff1681526020016000820160089054906101000a90046fffffffffffffffffffffffffffffffff166fffffffffffffffffffffffffffffffff166fffffffffffffffffffffffffffffffff1681526020016000820160189054906101000a900460ff161515151581526020016000820160199054906101000a900460ff161515151581526020016001820160009054906101000a900473ffffffffffffffffffffffffffffffffffffffff1673ffffffffffffffffffffffffffffffffffffffff1673ffffffffffffffffffffffffffffffffffffffff16815260200160028201548152602001600382018054610e2e90614627565b80601f0160208091040260200160405190810160405280929190818152602001828054610e5a90614627565b8015610ea75780601f10610e7c57610100808354040283529160200191610ea7565b820191906000526020600020905b815481529060010190602001808311610e8a57829003601f168201915b5050505050815260200160048201805480602002602001604051908101604052809291908181526020018280548015610f3557602002820191906000526020600020905b8160009054906101000a900473ffffffffffffffffffffffffffffffffffffffff1673ffffffffffffffffffffffffffffffffffffffff1681526020019060010190808311610eeb575b5050505050815260200160058201805480602002602001604051908101604052809291908181526020018280548015610fc357602002820191906000526020600020905b8160009054906101000a900473ffffffffffffffffffffffffffffffffffffffff1673ffffffffffffffffffffffffffffffffffffffff1681526020019060010190808311610f79575b505050505081526020016006820180548060200260200160405190810160405280929190818152602001828054801561105157602002820191906000526020600020905b8160009054906101000a900473ffffffffffffffffffffffffffffffffffffffff1673ffffffffffffffffffffffffffffffffffffffff1681526020019060010190808311611007575b5050505050815250509050600081604001516fffffffffffffffffffffffffffffffff1603611081575050611376565b6060816020015163ffffffff16826000015163ffffffff1611156110eb578260400151156110dd57600160cc600086815260200190815260200160002060000160186101000a81548160ff0219169083151502179055506110e6565b81610120015190505b611133565b82606001511561112957600160cc600086815260200190815260200160002060000160186101000a81548160ff021916908315150217905550611132565b81610140015190505b5b6000815114611343576000815183604001516fffffffffffffffffffffffffffffffff166111619190614a4b565b9050600060cc600087815260200190815260200160002060000160086101000a8154816fffffffffffffffffffffffffffffffff02191690836fffffffffffffffffffffffffffffffff16021790555060005b82518110156112a9578160cf60008584815181106111d5576111d4614a7c565b5b602002602001015173ffffffffffffffffffffffffffffffffffffffff1673ffffffffffffffffffffffffffffffffffffffff16815260200190815260200160002060008282546112269190614903565b925050819055508281815181106112405761123f614a7c565b5b602002602001015173ffffffffffffffffffffffffffffffffffffffff16867f6f966d5e2beec1399f46629127d090b652177d19d670ce5307139e04964c53b98460405161128e9190614209565b60405180910390a380806112a190614997565b9150506111b4565b5060008183516112b99190614aab565b84604001516fffffffffffffffffffffffffffffffff166112da9190614b05565b90506000811115611340578060cf60008660a0015173ffffffffffffffffffffffffffffffffffffffff1673ffffffffffffffffffffffffffffffffffffffff16815260200190815260200160002060008282546113389190614903565b925050819055505b50505b600160cd600086815260200190815260200160002060000160046101000a81548160ff0219169083151502179055505050505b50565b606080606060cc600085815260200190815260200160002060040160cc600086815260200190815260200160002060050160cc60008781526020019081526020016000206006018280548060200260200160405190810160405280929190818152602001828054801561144157602002820191906000526020600020905b8160009054906101000a900473ffffffffffffffffffffffffffffffffffffffff1673ffffffffffffffffffffffffffffffffffffffff16815260200190600101908083116113f7575b50505050509250818054806020026020016040519081016040528092919081815260200182805480156114c957602002820191906000526020600020905b8160009054906101000a900473ffffffffffffffffffffffffffffffffffffffff1673ffffffffffffffffffffffffffffffffffffffff168152602001906001019080831161147f575b505050505091508080548060200260200160405190810160405280929190818152602001828054801561155157602002820191906000526020600020905b8160009054906101000a900473ffffffffffffffffffffffffffffffffffffffff1673ffffffffffffffffffffffffffffffffffffffff1681526020019060010190808311611507575b505050505090509250925092509193909250565b600060ce600084815260200190815260200160002060003373ffffffffffffffffffffffffffffffffffffffff1673ffffffffffffffffffffffffffffffffffffffff1681526020019081526020016000206040518060800160405290816000820160009054906101000a900460ff161515151581526020016000820160019054906101000a900460ff161515151581526020016000820160029054906101000a900460ff161515151581526020016000820160039054906101000a90046fffffffffffffffffffffffffffffffff166fffffffffffffffffffffffffffffffff166fffffffffffffffffffffffffffffffff16815250509050600060cd6000858152602001908152602001600020604051806101000160405290816000820160009054906101000a900460ff161515151581526020016000820160019054906101000a900460ff161515151581526020016000820160029054906101000a900460ff161515151581526020016000820160039054906101000a900460ff161515151581526020016000820160049054906101000a900460ff161515151581526020016000820160059054906101000a900464ffffffffff1664ffffffffff1664ffffffffff16815260200160008201600a9054906101000a900464ffffffffff1664ffffffffff1664ffffffffff16815260200160008201600f9054906101000a90046fffffffffffffffffffffffffffffffff166fffffffffffffffffffffffffffffffff166fffffffffffffffffffffffffffffffff1681525050905060006117b082613119565b90507fffffffffffffffffffffffffffffffffffffffffffffffffffffffffffffffff8103611814576040517f08c379a000000000000000000000000000000000000000000000000000000000815260040161180b90614b85565b60405180910390fd5b60008114611857576040517f08c379a000000000000000000000000000000000000000000000000000000000815260040161184e90614bf1565b60405180910390fd5b826000015180611868575081602001515b61187157600080fd5b82602001511561188057600080fd5b60cd6000868152602001908152602001600020600001600f9054906101000a90046fffffffffffffffffffffffffffffffff166fffffffffffffffffffffffffffffffff1683606001516fffffffffffffffffffffffffffffffff16101561191d576040517f08c379a000000000000000000000000000000000000000000000000000000000815260040161191490614c5d565b60405180910390fd5b6001836020019015159081151581525050838360400190151590811515815250508260ce600087815260200190815260200160002060003373ffffffffffffffffffffffffffffffffffffffff1673ffffffffffffffffffffffffffffffffffffffff16815260200190815260200160002060008201518160000160006101000a81548160ff02191690831515021790555060208201518160000160016101000a81548160ff02191690831515021790555060408201518160000160026101000a81548160ff02191690831515021790555060608201518160000160036101000a8154816fffffffffffffffffffffffffffffffff02191690836fffffffffffffffffffffffffffffffff1602179055509050508315611a9057600160cc600087815260200190815260200160002060000160008282829054906101000a900463ffffffff16611a6d9190614c7d565b92506101000a81548163ffffffff021916908363ffffffff160217905550611ae5565b600160cc600087815260200190815260200160002060000160048282829054906101000a900463ffffffff16611ac69190614c7d565b92506101000a81548163ffffffff021916908363ffffffff1602179055505b5050505050565b3373ffffffffffffffffffffffffffffffffffffffff1660cc600083815260200190815260200160002060010160009054906101000a900473ffffffffffffffffffffffffffffffffffffffff1673ffffffffffffffffffffffffffffffffffffffff1614611b5a57600080fd5b600060cd6000838152602001908152602001600020604051806101000160405290816000820160009054906101000a900460ff161515151581526020016000820160019054906101000a900460ff161515151581526020016000820160029054906101000a900460ff161515151581526020016000820160039054906101000a900460ff161515151581526020016000820160049054906101000a900460ff161515151581526020016000820160059054906101000a900464ffffffffff1664ffffffffff1664ffffffffff16815260200160008201600a9054906101000a900464ffffffffff1664ffffffffff1664ffffffffff16815260200160008201600f9054906101000a90046fffffffffffffffffffffffffffffffff166fffffffffffffffffffffffffffffffff166fffffffffffffffffffffffffffffffff168152505090507fffffffffffffffffffffffffffffffffffffffffffffffffffffffffffffffff611cca82613119565b14611cd457600080fd5b620151808160c00151611ce79190614cb5565b60cd6000848152602001908152602001600020600001600a6101000a81548164ffffffffff021916908364ffffffffff1602179055505050565b8060cf60003373ffffffffffffffffffffffffffffffffffffffff1673ffffffffffffffffffffffffffffffffffffffff168152602001908152602001600020541015611d6d57600080fd5b8060cf60003373ffffffffffffffffffffffffffffffffffffffff1673ffffffffffffffffffffffffffffffffffffffff1681526020019081526020016000206000828254611dbc9190614b05565b925050819055503373ffffffffffffffffffffffffffffffffffffffff166108fc829081150290604051600060405180830381858888f19350505050158015611e09573d6000803e3d6000fd5b5050565b7f000000000000000000000000000000000000000000000000000000000000000073ffffffffffffffffffffffffffffffffffffffff163073ffffffffffffffffffffffffffffffffffffffff1603611e9b576040517f08c379a0000000000000000000000000000000000000000000000000000000008152600401611e9290614d60565b60405180910390fd5b7f000000000000000000000000000000000000000000000000000000000000000073ffffffffffffffffffffffffffffffffffffffff16611eda6131bc565b73ffffffffffffffffffffffffffffffffffffffff1614611f30576040517f08c379a0000000000000000000000000000000000000000000000000000000008152600401611f2790614df2565b60405180910390fd5b611f3981613213565b611f9281600067ffffffffffffffff811115611f5857611f5761392f565b5b6040519080825280601f01601f191660200182016040528015611f8a5781602001600182028036833780820191505090505b50600061321e565b50565b7f000000000000000000000000000000000000000000000000000000000000000073ffffffffffffffffffffffffffffffffffffffff163073ffffffffffffffffffffffffffffffffffffffff1603612023576040517f08c379a000000000000000000000000000000000000000000000000000000000815260040161201a90614d60565b60405180910390fd5b7f000000000000000000000000000000000000000000000000000000000000000073ffffffffffffffffffffffffffffffffffffffff166120626131bc565b73ffffffffffffffffffffffffffffffffffffffff16146120b8576040517f08c379a00000000000000000000000000000000000000000000000000000000081526004016120af90614df2565b60405180910390fd5b6120c182613213565b6120cd8282600161321e565b5050565b60007f000000000000000000000000000000000000000000000000000000000000000073ffffffffffffffffffffffffffffffffffffffff163073ffffffffffffffffffffffffffffffffffffffff1614612161576040517f08c379a000000000000000000000000000000000000000000000000000000000815260040161215890614e84565b60405180910390fd5b7f360894a13ba1a3210667c828492db98dca3e2076cc3735a920a3ca505d382bbc60001b905090565b61219261338c565b61219c600061340a565b565b600060cd6000848152602001908152602001600020604051806101000160405290816000820160009054906101000a900460ff161515151581526020016000820160019054906101000a900460ff161515151581526020016000820160029054906101000a900460ff161515151581526020016000820160039054906101000a900460ff161515151581526020016000820160049054906101000a900460ff161515151581526020016000820160059054906101000a900464ffffffffff1664ffffffffff1664ffffffffff16815260200160008201600a9054906101000a900464ffffffffff1664ffffffffff1664ffffffffff16815260200160008201600f9054906101000a90046fffffffffffffffffffffffffffffffff166fffffffffffffffffffffffffffffffff166fffffffffffffffffffffffffffffffff168152505090507fffffffffffffffffffffffffffffffffffffffffffffffffffffffffffffffff61230e82613119565b148061233a575060cc600084815260200190815260200160002060000160189054906101000a900460ff165b612379576040517f08c379a000000000000000000000000000000000000000000000000000000000815260040161237090614ef0565b60405180910390fd5b600060ce600085815260200190815260200160002060003373ffffffffffffffffffffffffffffffffffffffff1673ffffffffffffffffffffffffffffffffffffffff16815260200190815260200160002060000160039054906101000a90046fffffffffffffffffffffffffffffffff166fffffffffffffffffffffffffffffffff1690508083111561240c57600080fd5b82816124189190614b05565b60ce600086815260200190815260200160002060003373ffffffffffffffffffffffffffffffffffffffff1673ffffffffffffffffffffffffffffffffffffffff16815260200190815260200160002060000160036101000a8154816fffffffffffffffffffffffffffffffff02191690836fffffffffffffffffffffffffffffffff1602179055508260cc600086815260200190815260200160002060000160088282829054906101000a90046fffffffffffffffffffffffffffffffff166124e29190614f10565b92506101000a8154816fffffffffffffffffffffffffffffffff02191690836fffffffffffffffffffffffffffffffff1602179055503373ffffffffffffffffffffffffffffffffffffffff16847f6f966d5e2beec1399f46629127d090b652177d19d670ce5307139e04964c53b98560405161255f9190614209565b60405180910390a33373ffffffffffffffffffffffffffffffffffffffff166108fc849081150290604051600060405180830381858888f193505050501580156125ad573d6000803e3d6000fd5b5050505050565b6000609760009054906101000a900473ffffffffffffffffffffffffffffffffffffffff16905090565b60ce602052816000526040600020602052806000526040600020600091509150508060000160009054906101000a900460ff16908060000160019054906101000a900460ff16908060000160029054906101000a900460ff16908060000160039054906101000a90046fffffffffffffffffffffffffffffffff16905084565b60cf6020528060005260406000206000915090505481565b600060cd6000858152602001908152602001600020604051806101000160405290816000820160009054906101000a900460ff161515151581526020016000820160019054906101000a900460ff161515151581526020016000820160029054906101000a900460ff161515151581526020016000820160039054906101000a900460ff161515151581526020016000820160049054906101000a900460ff161515151581526020016000820160059054906101000a900464ffffffffff1664ffffffffff1664ffffffffff16815260200160008201600a9054906101000a900464ffffffffff1664ffffffffff1664ffffffffff16815260200160008201600f9054906101000a90046fffffffffffffffffffffffffffffffff166fffffffffffffffffffffffffffffffff166fffffffffffffffffffffffffffffffff168152505090507fffffffffffffffffffffffffffffffffffffffffffffffffffffffffffffffff6127e682613119565b14612826576040517f08c379a000000000000000000000000000000000000000000000000000000000815260040161281d90614fa0565b60405180910390fd5b60cc600085815260200190815260200160002060010160009054906101000a900473ffffffffffffffffffffffffffffffffffffffff1673ffffffffffffffffffffffffffffffffffffffff163373ffffffffffffffffffffffffffffffffffffffff16146128ca576040517f08c379a00000000000000000000000000000000000000000000000000000000081526004016128c19061500c565b60405180910390fd5b8060200151156128d957600080fd5b6128e4848484612f34565b50505050565b60cd6020528060005260406000206000915090508060000160009054906101000a900460ff16908060000160019054906101000a900460ff16908060000160029054906101000a900460ff16908060000160039054906101000a900460ff16908060000160049054906101000a900460ff16908060000160059054906101000a900464ffffffffff169080600001600a9054906101000a900464ffffffffff169080600001600f9054906101000a90046fffffffffffffffffffffffffffffffff16905088565b60008060019054906101000a900460ff161590508080156129e25750600160008054906101000a900460ff1660ff16105b80612a0f57506129f1306134d0565b158015612a0e5750600160008054906101000a900460ff1660ff16145b5b612a4e576040517f08c379a0000000000000000000000000000000000000000000000000000000008152600401612a459061509e565b60405180910390fd5b60016000806101000a81548160ff021916908360ff1602179055508015612a8b576001600060016101000a81548160ff0219169083151502179055505b8160ca8181612a9a91906153ba565b905050612aa56134f3565b8015612afe5760008060016101000a81548160ff0219169083151502179055507f7f26b83ff96e1f2b6a682f133852f6798a09c465da95921460cefb38474024986001604051612af59190615410565b60405180910390a15b5050565b60003411612b0f57600080fd5b60cd600082815260200190815260200160002060000160049054906101000a900460ff1615612b3d57600080fd5b3460cc600083815260200190815260200160002060000160088282829054906101000a90046fffffffffffffffffffffffffffffffff16612b7e919061542b565b92506101000a8154816fffffffffffffffffffffffffffffffff02191690836fffffffffffffffffffffffffffffffff1602179055503460ce600083815260200190815260200160002060003373ffffffffffffffffffffffffffffffffffffffff1673ffffffffffffffffffffffffffffffffffffffff16815260200190815260200160002060000160038282829054906101000a90046fffffffffffffffffffffffffffffffff16612c32919061542b565b92506101000a8154816fffffffffffffffffffffffffffffffff02191690836fffffffffffffffffffffffffffffffff160217905550807f656f363d91a61d4d280b52b209dabffe332d11f1f7f78b874cdd048daba8c5bd3334604051612c9a92919061546f565b60405180910390a250565b612cad61338c565b600073ffffffffffffffffffffffffffffffffffffffff168173ffffffffffffffffffffffffffffffffffffffff1603612d1c576040517f08c379a0000000000000000000000000000000000000000000000000000000008152600401612d139061550a565b60405180910390fd5b612d258161340a565b50565b60cc6020528060005260406000206000915090508060000160009054906101000a900463ffffffff16908060000160049054906101000a900463ffffffff16908060000160089054906101000a90046fffffffffffffffffffffffffffffffff16908060000160189054906101000a900460ff16908060000160199054906101000a900460ff16908060010160009054906101000a900473ffffffffffffffffffffffffffffffffffffffff1690806002015490806003018054612deb90614627565b80601f0160208091040260200160405190810160405280929190818152602001828054612e1790614627565b8015612e645780601f10612e3957610100808354040283529160200191612e64565b820191906000526020600020905b815481529060010190602001808311612e4757829003601f168201915b5050505050905088565b3373ffffffffffffffffffffffffffffffffffffffff1660cc600085815260200190815260200160002060010160009054906101000a900473ffffffffffffffffffffffffffffffffffffffff1673ffffffffffffffffffffffffffffffffffffffff1614612edc57600080fd5b60cc600084815260200190815260200160002060000160199054906101000a900460ff16612f0957600080fd5b818160cc60008681526020019081526020016000206003019182612f2e929190614804565b50505050565b60005b828290508110156131135760ce60008581526020019081526020016000206000848484818110612f6a57612f69614a7c565b5b9050602002016020810190612f7f9190613f85565b73ffffffffffffffffffffffffffffffffffffffff1673ffffffffffffffffffffffffffffffffffffffff16815260200190815260200160002060000160009054906101000a900460ff166131005760cc6000858152602001908152602001600020600401838383818110612ff757612ff6614a7c565b5b905060200201602081019061300c9190613f85565b9080600181540180825580915050600190039060005260206000200160009091909190916101000a81548173ffffffffffffffffffffffffffffffffffffffff021916908373ffffffffffffffffffffffffffffffffffffffff160217905550600160ce6000868152602001908152602001600020600085858581811061309657613095614a7c565b5b90506020020160208101906130ab9190613f85565b73ffffffffffffffffffffffffffffffffffffffff1673ffffffffffffffffffffffffffffffffffffffff16815260200190815260200160002060000160006101000a81548160ff0219169083151502179055505b808061310b90614997565b915050612f37565b50505050565b6000816000015161314c577fffffffffffffffffffffffffffffffffffffffffffffffffffffffffffffff9c90506131b7565b8160c0015164ffffffffff16421015613187577fffffffffffffffffffffffffffffffffffffffffffffffffffffffffffffffff90506131b7565b8160a001518260c0015161319b9190614cb5565b64ffffffffff164211156131b257600190506131b7565b600090505b919050565b60006131ea7f360894a13ba1a3210667c828492db98dca3e2076cc3735a920a3ca505d382bbc60001b61354c565b60000160009054906101000a900473ffffffffffffffffffffffffffffffffffffffff16905090565b61321b61338c565b50565b61324a7f4910fdfa16fed3260ed0e7147f7cc6da11a60208b5b9406d12a635614ffd914360001b613556565b60000160009054906101000a900460ff161561326e5761326983613560565b613387565b8273ffffffffffffffffffffffffffffffffffffffff166352d1902d6040518163ffffffff1660e01b8152600401602060405180830381865afa9250505080156132d657506040513d601f19601f820116820180604052508101906132d3919061553f565b60015b613315576040517f08c379a000000000000000000000000000000000000000000000000000000000815260040161330c906155de565b60405180910390fd5b7f360894a13ba1a3210667c828492db98dca3e2076cc3735a920a3ca505d382bbc60001b811461337a576040517f08c379a000000000000000000000000000000000000000000000000000000000815260040161337190615670565b60405180910390fd5b50613386838383613619565b5b505050565b613394613645565b73ffffffffffffffffffffffffffffffffffffffff166133b26125b4565b73ffffffffffffffffffffffffffffffffffffffff1614613408576040517f08c379a00000000000000000000000000000000000000000000000000000000081526004016133ff906156dc565b60405180910390fd5b565b6000609760009054906101000a900473ffffffffffffffffffffffffffffffffffffffff16905081609760006101000a81548173ffffffffffffffffffffffffffffffffffffffff021916908373ffffffffffffffffffffffffffffffffffffffff1602179055508173ffffffffffffffffffffffffffffffffffffffff168173ffffffffffffffffffffffffffffffffffffffff167f8be0079c531659141344cd1fd0a4f28419497f9722a3daafe3b4186f6b6457e060405160405180910390a35050565b6000808273ffffffffffffffffffffffffffffffffffffffff163b119050919050565b600060019054906101000a900460ff16613542576040517f08c379a00000000000000000000000000000000000000000000000000000000081526004016135399061576e565b60405180910390fd5b61354a61364d565b565b6000819050919050565b6000819050919050565b613569816134d0565b6135a8576040517f08c379a000000000000000000000000000000000000000000000000000000000815260040161359f90615800565b60405180910390fd5b806135d57f360894a13ba1a3210667c828492db98dca3e2076cc3735a920a3ca505d382bbc60001b61354c565b60000160006101000a81548173ffffffffffffffffffffffffffffffffffffffff021916908373ffffffffffffffffffffffffffffffffffffffff16021790555050565b613622836136ae565b60008251118061362f5750805b156136405761363e83836136fd565b505b505050565b600033905090565b600060019054906101000a900460ff1661369c576040517f08c379a00000000000000000000000000000000000000000000000000000000081526004016136939061576e565b60405180910390fd5b6136ac6136a7613645565b61340a565b565b6136b781613560565b8073ffffffffffffffffffffffffffffffffffffffff167fbc7cd75a20ee27fd9adebab32041f755214dbc6bffa90cc0225b39da2e5c2d3b60405160405180910390a250565b6060613708836134d0565b613747576040517f08c379a000000000000000000000000000000000000000000000000000000000815260040161373e90615892565b60405180910390fd5b6000808473ffffffffffffffffffffffffffffffffffffffff168460405161376f91906158f9565b600060405180830381855af49150503d80600081146137aa576040519150601f19603f3d011682016040523d82523d6000602084013e6137af565b606091505b50915091506137d78282604051806060016040528060278152602001615933602791396137e1565b9250505092915050565b606083156137f157829050613841565b6000835111156138045782518084602001fd5b816040517f08c379a00000000000000000000000000000000000000000000000000000000081526004016138389190615910565b60405180910390fd5b9392505050565b8280548282559060005260206000209081019282156138d7579160200282015b828111156138d657823573ffffffffffffffffffffffffffffffffffffffff168260006101000a81548173ffffffffffffffffffffffffffffffffffffffff021916908373ffffffffffffffffffffffffffffffffffffffff16021790555091602001919060010190613868565b5b5090506138e491906138e8565b5090565b5b808211156139015760008160009055506001016138e9565b5090565b6000604051905090565b600080fd5b600080fd5b600080fd5b6000601f19601f8301169050919050565b7f4e487b7100000000000000000000000000000000000000000000000000000000600052604160045260246000fd5b6139678261391e565b810181811067ffffffffffffffff821117156139865761398561392f565b5b80604052505050565b6000613999613905565b90506139a5828261395e565b919050565b60008115159050919050565b6139bf816139aa565b81146139ca57600080fd5b50565b6000813590506139dc816139b6565b92915050565b600064ffffffffff82169050919050565b6139fc816139e2565b8114613a0757600080fd5b50565b600081359050613a19816139f3565b92915050565b60006fffffffffffffffffffffffffffffffff82169050919050565b613a4481613a1f565b8114613a4f57600080fd5b50565b600081359050613a6181613a3b565b92915050565b60006101008284031215613a7e57613a7d613919565b5b613a8961010061398f565b90506000613a99848285016139cd565b6000830152506020613aad848285016139cd565b6020830152506040613ac1848285016139cd565b6040830152506060613ad5848285016139cd565b6060830152506080613ae9848285016139cd565b60808301525060a0613afd84828501613a0a565b60a08301525060c0613b1184828501613a0a565b60c08301525060e0613b2584828501613a52565b60e08301525092915050565b6000819050919050565b613b4481613b31565b8114613b4f57600080fd5b50565b600081359050613b6181613b3b565b92915050565b600080fd5b600080fd5b600080fd5b60008083601f840112613b8c57613b8b613b67565b5b8235905067ffffffffffffffff811115613ba957613ba8613b6c565b5b602083019150836001820283011115613bc557613bc4613b71565b5b9250929050565b60008083601f840112613be257613be1613b67565b5b8235905067ffffffffffffffff811115613bff57613bfe613b6c565b5b602083019150836020820283011115613c1b57613c1a613b71565b5b9250929050565b60008060008060008060008060008060006101c08c8e031215613c4857613c4761390f565b5b6000613c568e828f01613a67565b9b5050610100613c688e828f016139cd565b9a5050610120613c7a8e828f01613b52565b9950506101408c013567ffffffffffffffff811115613c9c57613c9b613914565b5b613ca88e828f01613b76565b98509850506101608c013567ffffffffffffffff811115613ccc57613ccb613914565b5b613cd88e828f01613bcc565b96509650506101808c013567ffffffffffffffff811115613cfc57613cfb613914565b5b613d088e828f01613bcc565b94509450506101a08c013567ffffffffffffffff811115613d2c57613d2b613914565b5b613d388e828f01613bcc565b92509250509295989b509295989b9093969950565b600060208284031215613d6357613d6261390f565b5b6000613d7184828501613b52565b91505092915050565b600081519050919050565b600082825260208201905092915050565b6000819050602082019050919050565b600073ffffffffffffffffffffffffffffffffffffffff82169050919050565b6000613dd182613da6565b9050919050565b613de181613dc6565b82525050565b6000613df38383613dd8565b60208301905092915050565b6000602082019050919050565b6000613e1782613d7a565b613e218185613d85565b9350613e2c83613d96565b8060005b83811015613e5d578151613e448882613de7565b9750613e4f83613dff565b925050600181019050613e30565b5085935050505092915050565b60006060820190508181036000830152613e848186613e0c565b90508181036020830152613e988185613e0c565b90508181036040830152613eac8184613e0c565b9050949350505050565b60008060408385031215613ecd57613ecc61390f565b5b6000613edb85828601613b52565b9250506020613eec858286016139cd565b9150509250929050565b6000819050919050565b613f0981613ef6565b8114613f1457600080fd5b50565b600081359050613f2681613f00565b92915050565b600060208284031215613f4257613f4161390f565b5b6000613f5084828501613f17565b91505092915050565b613f6281613dc6565b8114613f6d57600080fd5b50565b600081359050613f7f81613f59565b92915050565b600060208284031215613f9b57613f9a61390f565b5b6000613fa984828501613f70565b91505092915050565b600080fd5b600067ffffffffffffffff821115613fd257613fd161392f565b5b613fdb8261391e565b9050602081019050919050565b82818337600083830152505050565b600061400a61400584613fb7565b61398f565b90508281526020810184848401111561402657614025613fb2565b5b614031848285613fe8565b509392505050565b600082601f83011261404e5761404d613b67565b5b813561405e848260208601613ff7565b91505092915050565b6000806040838503121561407e5761407d61390f565b5b600061408c85828601613f70565b925050602083013567ffffffffffffffff8111156140ad576140ac613914565b5b6140b985828601614039565b9150509250929050565b6140cc81613b31565b82525050565b60006020820190506140e760008301846140c3565b92915050565b600080604083850312156141045761410361390f565b5b600061411285828601613b52565b925050602061412385828601613f17565b9150509250929050565b61413681613dc6565b82525050565b6000602082019050614151600083018461412d565b92915050565b6000806040838503121561416e5761416d61390f565b5b600061417c85828601613b52565b925050602061418d85828601613f70565b9150509250929050565b6141a0816139aa565b82525050565b6141af81613a1f565b82525050565b60006080820190506141ca6000830187614197565b6141d76020830186614197565b6141e46040830185614197565b6141f160608301846141a6565b95945050505050565b61420381613ef6565b82525050565b600060208201905061421e60008301846141fa565b92915050565b60008060006040848603121561423d5761423c61390f565b5b600061424b86828701613b52565b935050602084013567ffffffffffffffff81111561426c5761426b613914565b5b61427886828701613bcc565b92509250509250925092565b61428d816139e2565b82525050565b6000610100820190506142a9600083018b614197565b6142b6602083018a614197565b6142c36040830189614197565b6142d06060830188614197565b6142dd6080830187614197565b6142ea60a0830186614284565b6142f760c0830185614284565b61430460e08301846141a6565b9998505050505050505050565b600080fd5b60006080828403121561432c5761432b614311565b5b81905092915050565b60006080828403121561434b5761434a61390f565b5b600061435984828501614316565b91505092915050565b600063ffffffff82169050919050565b61437b81614362565b82525050565b600081519050919050565b600082825260208201905092915050565b60005b838110156143bb5780820151818401526020810190506143a0565b60008484015250505050565b60006143d282614381565b6143dc818561438c565b93506143ec81856020860161439d565b6143f58161391e565b840191505092915050565b600061010082019050614416600083018b614372565b614423602083018a614372565b61443060408301896141a6565b61443d6060830188614197565b61444a6080830187614197565b61445760a083018661412d565b61446460c08301856140c3565b81810360e083015261447681846143c7565b90509998505050505050505050565b60008060006040848603121561449e5761449d61390f565b5b60006144ac86828701613b52565b935050602084013567ffffffffffffffff8111156144cd576144cc613914565b5b6144d986828701613b76565b92509250509250925092565b60008160601b9050919050565b60006144fd826144e5565b9050919050565b600061450f826144f2565b9050919050565b61452761452282613dc6565b614504565b82525050565b600081905092915050565b7f636861696e706163745f70726f706f73616c7061637400000000000000000000600082015250565b600061456e60168361452d565b915061457982614538565b601682019050919050565b6000819050919050565b61459f61459a82613ef6565b614584565b82525050565b60006145b18286614516565b6014820191506145c18285614516565b6014820191506145d082614561565b91506145dc828461458e565b602082019150819050949350505050565b600082905092915050565b7f4e487b7100000000000000000000000000000000000000000000000000000000600052602260045260246000fd5b6000600282049050600182168061463f57607f821691505b602082108103614652576146516145f8565b5b50919050565b60008190508160005260206000209050919050565b60006020601f8301049050919050565b600082821b905092915050565b6000600883026146ba7fffffffffffffffffffffffffffffffffffffffffffffffffffffffffffffffff8261467d565b6146c4868361467d565b95508019841693508086168417925050509392505050565b6000819050919050565b60006147016146fc6146f784613ef6565b6146dc565b613ef6565b9050919050565b6000819050919050565b61471b836146e6565b61472f61472782614708565b84845461468a565b825550505050565b600090565b614744614737565b61474f818484614712565b505050565b5b818110156147735761476860008261473c565b600181019050614755565b5050565b601f8211156147b85761478981614658565b6147928461466d565b810160208510156147a1578190505b6147b56147ad8561466d565b830182614754565b50505b505050565b600082821c905092915050565b60006147db600019846008026147bd565b1980831691505092915050565b60006147f483836147ca565b9150826002028217905092915050565b61480e83836145ed565b67ffffffffffffffff8111156148275761482661392f565b5b6148318254614627565b61483c828285614777565b6000601f83116001811461486b5760008415614859578287013590505b61486385826147e8565b8655506148cb565b601f19841661487986614658565b60005b828110156148a15784890135825560018201915060208501945060208101905061487c565b868310156148be57848901356148ba601f8916826147ca565b8355505b6001600288020188555050505b50505050505050565b7f4e487b7100000000000000000000000000000000000000000000000000000000600052601160045260246000fd5b600061490e82613ef6565b915061491983613ef6565b9250828201905080821115614931576149306148d4565b5b92915050565b7f4e487b7100000000000000000000000000000000000000000000000000000000600052601260045260246000fd5b600061497182614362565b915061497c83614362565b92508261498c5761498b614937565b5b828204905092915050565b60006149a282613ef6565b91507fffffffffffffffffffffffffffffffffffffffffffffffffffffffffffffffff82036149d4576149d36148d4565b5b600182019050919050565b7f566f74696e67206e6f74206f7665720000000000000000000000000000000000600082015250565b6000614a15600f8361438c565b9150614a20826149df565b602082019050919050565b60006020820190508181036000830152614a4481614a08565b9050919050565b6000614a5682613ef6565b9150614a6183613ef6565b925082614a7157614a70614937565b5b828204905092915050565b7f4e487b7100000000000000000000000000000000000000000000000000000000600052603260045260246000fd5b6000614ab682613ef6565b9150614ac183613ef6565b9250817fffffffffffffffffffffffffffffffffffffffffffffffffffffffffffffffff0483118215151615614afa57614af96148d4565b5b828202905092915050565b6000614b1082613ef6565b9150614b1b83613ef6565b9250828203905081811115614b3357614b326148d4565b5b92915050565b7f566f74696e67206e6f7420737461727465640000000000000000000000000000600082015250565b6000614b6f60128361438c565b9150614b7a82614b39565b602082019050919050565b60006020820190508181036000830152614b9e81614b62565b9050919050565b7f566f74696e67206e6f7420616374697665000000000000000000000000000000600082015250565b6000614bdb60118361438c565b9150614be682614ba5565b602082019050919050565b60006020820190508181036000830152614c0a81614bce565b9050919050565b7f436f6e747269627574696f6e206e6f7420656e6f756768000000000000000000600082015250565b6000614c4760178361438c565b9150614c5282614c11565b602082019050919050565b60006020820190508181036000830152614c7681614c3a565b9050919050565b6000614c8882614362565b9150614c9383614362565b9250828201905063ffffffff811115614caf57614cae6148d4565b5b92915050565b6000614cc0826139e2565b9150614ccb836139e2565b9250828201905064ffffffffff811115614ce857614ce76148d4565b5b92915050565b7f46756e6374696f6e206d7573742062652063616c6c6564207468726f7567682060008201527f64656c656761746563616c6c0000000000000000000000000000000000000000602082015250565b6000614d4a602c8361438c565b9150614d5582614cee565b604082019050919050565b60006020820190508181036000830152614d7981614d3d565b9050919050565b7f46756e6374696f6e206d7573742062652063616c6c6564207468726f7567682060008201527f6163746976652070726f78790000000000000000000000000000000000000000602082015250565b6000614ddc602c8361438c565b9150614de782614d80565b604082019050919050565b60006020820190508181036000830152614e0b81614dcf565b9050919050565b7f555550535570677261646561626c653a206d757374206e6f742062652063616c60008201527f6c6564207468726f7567682064656c656761746563616c6c0000000000000000602082015250565b6000614e6e60388361438c565b9150614e7982614e12565b604082019050919050565b60006020820190508181036000830152614e9d81614e61565b9050919050565b7f576974686472617720756e617661696c61626c65000000000000000000000000600082015250565b6000614eda60148361438c565b9150614ee582614ea4565b602082019050919050565b60006020820190508181036000830152614f0981614ecd565b9050919050565b6000614f1b82613a1f565b9150614f2683613a1f565b925082820390506fffffffffffffffffffffffffffffffff811115614f4e57614f4d6148d4565b5b92915050565b7f566f74696e672073746172746564000000000000000000000000000000000000600082015250565b6000614f8a600e8361438c565b9150614f9582614f54565b602082019050919050565b60006020820190508181036000830152614fb981614f7d565b9050919050565b7f556e617574686f72697a65640000000000000000000000000000000000000000600082015250565b6000614ff6600c8361438c565b915061500182614fc0565b602082019050919050565b6000602082019050818103600083015261502581614fe9565b9050919050565b7f496e697469616c697a61626c653a20636f6e747261637420697320616c72656160008201527f647920696e697469616c697a6564000000000000000000000000000000000000602082015250565b6000615088602e8361438c565b91506150938261502c565b604082019050919050565b600060208201905081810360008301526150b78161507b565b9050919050565b6150c781614362565b81146150d257600080fd5b50565b600081356150e2816150be565b80915050919050565b60008160001b9050919050565b600063ffffffff615108846150eb565b9350801983169250808416831791505092915050565b600061513961513461512f84614362565b6146dc565b614362565b9050919050565b6000819050919050565b6151538261511e565b61516661515f82615140565b83546150f8565b8255505050565b60008160201b9050919050565b600067ffffffff0000000061518e8461516d565b9350801983169250808416831791505092915050565b6151ad8261511e565b6151c06151b982615140565b835461517a565b8255505050565b600081356151d481613f59565b80915050919050565b60008160401b9050919050565b60007bffffffffffffffffffffffffffffffffffffffff0000000000000000615212846151dd565b9350801983169250808416831791505092915050565b600061524361523e61523984613da6565b6146dc565b613da6565b9050919050565b600061525582615228565b9050919050565b60006152678261524a565b9050919050565b6000819050919050565b6152818261525c565b61529461528d8261526e565b83546151ea565b8255505050565b600081356152a881613a3b565b80915050919050565b60006fffffffffffffffffffffffffffffffff6152cd846150eb565b9350801983169250808416831791505092915050565b60006152fe6152f96152f484613a1f565b6146dc565b613a1f565b9050919050565b6000819050919050565b615318826152e3565b61532b61532482615305565b83546152b1565b8255505050565b600081016000830180615344816150d5565b9050615350818461514a565b505050600081016020830180615365816150d5565b905061537181846151a4565b505050600081016040830180615386816151c7565b90506153928184615278565b5050506001810160608301806153a78161529b565b90506153b3818461530f565b5050505050565b6153c48282615332565b5050565b6000819050919050565b600060ff82169050919050565b60006153fa6153f56153f0846153c8565b6146dc565b6153d2565b9050919050565b61540a816153df565b82525050565b60006020820190506154256000830184615401565b92915050565b600061543682613a1f565b915061544183613a1f565b925082820190506fffffffffffffffffffffffffffffffff811115615469576154686148d4565b5b92915050565b6000604082019050615484600083018561412d565b61549160208301846141fa565b9392505050565b7f4f776e61626c653a206e6577206f776e657220697320746865207a65726f206160008201527f6464726573730000000000000000000000000000000000000000000000000000602082015250565b60006154f460268361438c565b91506154ff82615498565b604082019050919050565b60006020820190508181036000830152615523816154e7565b9050919050565b60008151905061553981613b3b565b92915050565b6000602082840312156155555761555461390f565b5b60006155638482850161552a565b91505092915050565b7f45524331393637557067726164653a206e657720696d706c656d656e7461746960008201527f6f6e206973206e6f742055555053000000000000000000000000000000000000602082015250565b60006155c8602e8361438c565b91506155d38261556c565b604082019050919050565b600060208201905081810360008301526155f7816155bb565b9050919050565b7f45524331393637557067726164653a20756e737570706f727465642070726f7860008201527f6961626c65555549440000000000000000000000000000000000000000000000602082015250565b600061565a60298361438c565b9150615665826155fe565b604082019050919050565b600060208201905081810360008301526156898161564d565b9050919050565b7f4f776e61626c653a2063616c6c6572206973206e6f7420746865206f776e6572600082015250565b60006156c660208361438c565b91506156d182615690565b602082019050919050565b600060208201905081810360008301526156f5816156b9565b9050919050565b7f496e697469616c697a61626c653a20636f6e7472616374206973206e6f74206960008201527f6e697469616c697a696e67000000000000000000000000000000000000000000602082015250565b6000615758602b8361438c565b9150615763826156fc565b604082019050919050565b600060208201905081810360008301526157878161574b565b9050919050565b7f455243313936373a206e657720696d706c656d656e746174696f6e206973206e60008201527f6f74206120636f6e747261637400000000000000000000000000000000000000602082015250565b60006157ea602d8361438c565b91506157f58261578e565b604082019050919050565b60006020820190508181036000830152615819816157dd565b9050919050565b7f416464726573733a2064656c65676174652063616c6c20746f206e6f6e2d636f60008201527f6e74726163740000000000000000000000000000000000000000000000000000602082015250565b600061587c60268361438c565b915061588782615820565b604082019050919050565b600060208201905081810360008301526158ab8161586f565b9050919050565b600081519050919050565b600081905092915050565b60006158d3826158b2565b6158dd81856158bd565b93506158ed81856020860161439d565b80840191505092915050565b600061590582846158c8565b915081905092915050565b6000602082019050818103600083015261592a81846143c7565b90509291505056fe416464726573733a206c6f772d6c6576656c2064656c65676174652063616c6c206661696c6564a26469706673582212203d166b387d78063d3a438caee03ca3d23d635c66eda32c296b604445a988f55164736f6c63430008100033",
  "linkReferences": {},
  "deployedLinkReferences": {}
}